:1000000012C017C016C015C014C013C012C011C052
:1000100010C00FC00EC00DC00CC00BC00AC009C07C
:1000200008C007C006C011241FBECFEDCDBF02D04F
:1000300025C0E6CF2FE088E190E00FB6F894A895B0
:1000400081BD0FBE21BD10BE84E083BF81B38FEFA1
:1000500081BB12BA12B88AE089B988E18AB986E010
:1000600083B932E020E498E4A89508B601FEFCCFFD
:1000700038BF82B3822782BB9CB9F6CFF894FFCFFA
:00000001FF
