:101800003BC06FC054C053C052C051C050C04FC045
:101810004EC04DC04CC04BC04AC049C048C047C074
:1018200046C045C044C0040309041C037700770088
:1018300077002E00660069007300630068006C008A
:101840002E00640065000E03550053004200610045
:101850007300700012011001FF000008C016DC05C3
:101860000201010200010902120001010080320997
:10187000040000000000000011241FBECFE5D4E0EA
:10188000DEBFCDBF10E0A0E6B0E0E4EBFFE102C0B8
:1018900005900D92A636B107D9F710E0A6E6B0E0A4
:1018A00001C01D92AB39B107E1F764D181C3A8CF64
:1018B000A82FB92F80E090E041E050EA60956F5F7B
:1018C00058F42D9138EF82279795879510F084274B
:1018D00095273F5FC8F3F3CF0895EADF8D939D937B
:1018E0000895CF93CFB7CF93DF93C395859BE9F747
:1018F000859B0BC0859B09C0859B07C0859B05C048
:10190000859B03C0859B01C089C06F93C0917E00F9
:10191000DD27CB57DF4F2F9365E5859B03C02F91C4
:101920006F91E6CF0F931F934F9320E040E15F93B9
:1019300000B3047205FB27F93F9350E03BE039C048
:10194000147240642F77012F53501EC0406810B3AB
:1019500014722F7753501FC0406400B32F77047266
:10196000D1F15350000023C0406210B32F7714729E
:1019700091F15350000025C004721027515012F409
:101980005D5F0000115027952C3F10B3C8F614720C
:101990000127015027952C3FC8F64227499300B3F1
:1019A000047210274F73115027952C3FA8F64695C7
:1019B000469510B3147279F00127015027952C3FFA
:1019C00098F66B5A60F3315000B3B0F600C010E4E3
:1019D0001ABF002717C03B503195C31BD04010E4FD
:1019E0001ABF0881033CF9F00B34E9F020917C0028
:1019F0001981110F1213EDCF093651F10D3211F08B
:101A0000013E39F7009383003F915F914F911F9101
:101A10000F912F916F91CAB7C6FD67CFDF91CF911C
:101A2000CFBFCF91189520918300222369F31091A5
:101A30008100112339F534303AF13093810020933D
:101A40007D0010917E003BE0311B30937E001CC076
:101A5000009181000130B4F40AE53091600034FD5A
:101A600014C000936000C1E7D0E013C0052710E068
:101A700000C0000002BB1AC0052710E0221F1DC0D5
:101A800010E021C04AE502C032ED432FC4E1D0E0AE
:101A900032E011B31462959A02B311BB54E220E80C
:101AA00065E320FF052702BB279517951C3FF0F63D
:101AB0006695B8F7B1F720FF052702BB2795179564
:101AC0001C3FD0F62795179517FF052700001C3FF0
:101AD00002BBB0F629913A9519F70B7D109182005F
:101AE000110FC651D04002BB11F010937C0010E4DE
:101AF0001ABF006211B31B7D402F4B7D54E05A95F5
:101B0000F1F702BB11BB42BB7FCF982F92959F701C
:101B10009A3008F0995D5D9BFECF905D9CB98F7007
:101B20008A3008F0895D5D9BFECF805D8CB9089599
:101B30000F931F93CF93DF93EB01142FE6DF5D9B91
:101B4000FECF8AE38CB900E206C05D9BFECF0CB9E4
:101B50008991DBDF11501123C1F75D9BFECF8DE032
:101B60008CB95D9BFECF8AE08CB9DF91CF911F913C
:101B70000F9108952F923F924F925F926F927F92B2
:101B80008F929F92AF92BF92CF92DF92EF92FF928D
:101B90000F931F93CF93DF9388E10FB6F89481BD25
:101BA00011BC0FBE909A539A83E389B980E060E03C
:101BB00070E040E0BDDF81E08BBF82E08BBF8099A9
:101BC000D6C185B7836085BF8BB780648BBF8D9886
:101BD00078946CE0262E312C03EC56E4652E58E107
:101BE000752E4AE2442E48E1542E36E2E32E38E1C7
:101BF000F32E26E6C22E28E1D22E94E5A92E98E1F6
:101C0000B92E86E6882E80E0982E90918100935020
:101C100097FD20C180917E00E101C81BD109CB57FF
:101C2000DF4F80917D008D3209F0B7C0983009F008
:101C30000FC1009371002AE52093600010926A00A2
:101C40003881832F807629818823E1F1909280006A
:101C500080927F002330C9F49B818C812A812033BC
:101C600039F48370E82FF0E0EE59FF4F808109C00E
:101C7000203A11F488D105C0203C11F46D818BD13C
:101C800080E08093690094E078C0253011F491E001
:101C900074C0822F8450863008F06EC08A819B8188
:101CA00090936C0080936B00293009F465C09E818D
:101CB00090936D008D81827080936E0037FD61C0BE
:101CC0002FEF60C08A8110927A00222331F41092A3
:101CD0007B002AE730E092E04AC0253019F4809377
:101CE000820042C0263081F58B81813029F4B09288
:101CF0008000A0927F0006C0823031F4D092800034
:101D0000C0927F0092E11CC08330C9F48A8188238D
:101D100031F4F0928000E0927F0094E011C08130B5
:101D200031F45092800040927F009CE109C08230E3
:101D300031F47092800060927F009EE001C090E0DC
:101D400080E480936A0019C0283019F424E830E058
:101D500009C0293019F48093840006C02A3021F488
:101D60002AE730E091E003C02AE730E090E03093CA
:101D7000800020937F0001C090E08F81882331F0A4
:101D800008C0292F80E880936A0004C02E8129179B
:101D900008F0292F209361005BC080916A0087FFC3
:101DA00057C080916D00592F891708F4582F851B53
:101DB00080936D0060E0882309F461E070916E000B
:101DC000E0916B00F0916C0040E037C0CF018F7361
:101DD0009070892B49F4F89423E020935700E895FC
:101DE000789407B600FCFDCF4E5FF89489919991E5
:101DF00021E00C0120935700E895112478949F016D
:101E00002E5F3F4FC9018F739070892B31F066238D
:101E100099F0451788F0772379F0F89485E080935E
:101E20005700E895789407B600FCFDCFF894E1E1FF
:101E3000E0935700E8957894F901451708F4C6CF68
:101E4000F0936C00E0936B00662311F01092610038
:101E5000109281008091600084FF78C080916100C1
:101E60008F3F09F473C0182F893008F018E0811BE8
:101E7000809361008091710098E8892780937100B8
:101E8000112309F451C080916A0087FF1EC0809120
:101E90006D00811708F4182F811B80936D00A091AD
:101EA0006B00B0916C00AD01C2E7D0E0212F30E0B3
:101EB000B9016C0F7D1F05C0FA01849189934F5FB2
:101EC0005F4FC617D707C1F727C020917F00309119
:101ED000800086FF0DC0A2E7B0E080E090E0F9014D
:101EE000E80FF91FE491ED9301961817C1F708C0A8
:101EF000D901912FE2E7F0E08D9181939150E1F7C4
:101F00001150812F90E01F5F0196820F931F9093D5
:101F1000800080937F0008C02A0F3B1F30936C0025
:101F200020936B00193060F482E790E0612FD5DCDC
:101F3000612F6C5F6C3041F08FEF8093610004C0C3
:101F40008FEF809361006EE16093600094E180B355
:101F5000847259F49150D9F71092820010927C004B
:101F60008FEF60E070E040E0E3DD809B4ECE12BA80
:101F7000F8941BBE15BE81E08BBF1BBEE0916F00C5
:101F8000F09170000995E199FECF9FBB8EBBE09A5E
:101F900099278DB30895262FE199FECF9FBB8EBB65
:101FA0002DBB0FB6F894E29AE19A0FBE0196089500
:041FB000F894FFCFD3
:061FB4005AFF1E93070016
:0400000300001800E1
:00000001FF
