:1000000092C0A1C0A1C09FC09EC09DC09CC09BC00B
:100010009AC099C098C097C096C095C094C093C02C
:1000200092C091C090C03F3F3F3F3F3F3F3F3F3F67
:100030003F3F3F3F3F3F3F3F3F3F3F71313F3F3FAC
:100040007A736177323F3F6378646534333F3F2092
:1000500076667472353F3F6E62686779363F3F3F20
:100060006D6A7537383F3F3F6B696F30393F3F3FAF
:100070003F6C3F703F3F3F3F3F3F3F3F3F3F3F3F32
:100080003F3F3F3F3F3F3F3F3F3F3F3F3F3F3F3F80
:100090003F3F3F3F3F3F3F3F3F3F3F3F3F3F3F3F70
:1000A0003F3F3F3F3F3F3F203FA000023F123F0303
:1000B000A43F3F84263F3FA7263FA183803F3F3F89
:1000C00087748573813F3F7677757270713F3F57B4
:1000D00067656362613F3F5666546453603F3F3FCC
:1000E00046555251503F3F2C45434240413F3F37D8
:1000F00023443533313F3F3F3F1132303F3F862568
:10010000222136343F3F3F3F3F3F3F3F973F3F171E
:100110003F15243F3F3F01A60716051482A513276C
:1001200006A3A204103F11241FBECFE5D4E0DEBF1A
:10013000CDBF10E0A0E6B0E001C01D92A837B10726
:10014000E1F7B1D04DC15CCF1F920F920FB60F9265
:1001500011242F933F938F939F9382B390E4892729
:1001600082BB83994EC080916100882341F48499B9
:1001700027C081E0809361001092650028C0209123
:100180006500283098F4849B0DC03091630081E0B5
:1001900090E0022E02C0880F991F0A94E2F7382BD4
:1001A000309363002F5F209365002BC0283021F42B
:1001B00089E08093650025C010926100109265006F
:1001C00080916300803F31F481E08093620010925F
:1001D000630017C09091630080916200923149F4EE
:1001E000882321F481E0809360000BC010926000AE
:1001F00002C0882319F01092620003C081E080934E
:1002000066009F918F913F912F910F900FBE0F909D
:100210001F901895E82FF0E0EA5DFF4F84919091D0
:100220006000911180520895809166008823E1F367
:100230001092660080916300089510926100109200
:100240006300109265008B98839A85B7886085BF9C
:1002500085B78B7F85BF8BB780688BBF78940895F7
:1002600089B990BD86E880BD88E18AB908955D9B13
:10027000FECF8CB908955F9BFECF8CB10895CF93CC
:10028000C82F82958F708A3010F4805D01C0895C20
:10029000EEDFCF70CA3010F4C05D01C0C95C8C2F96
:1002A000E6DFCF9108951F93CF93DF93C6DF18BA8F
:1002B00086E087BB8E9AC1E0D0E014E0B5DFE82F7E
:1002C000F0E0EA55FF4FE49180916200AE2FA295D5
:1002D000AF70F0E0882389F0B0E0A859BF4FEF700D
:1002E000F070CE0102C0880F991FEA95E2F7FC0179
:1002F000E0958C91E823EC930FC0B0E0A859BF4F74
:10030000EF70F070CE0102C0880F991FEA95E2F7F6
:10031000FC018C918E2B8C938FEF9FEF18BBE0E24A
:10032000EA95F1F718BAF0E2FA95F1F718BB20E276
:100330002A95F1F718BA40E24A95F1F724E030E047
:1003400017C0AC01022E02C0559547950A94E2F7FA
:1003500040FF02C018BB01C018BAE0E2EA95F1F70D
:10036000C19AF0E4FA95F1F718BA40E74A95F1F727
:1003700021503040EFEF2F3F3E0719F7E7EDF0E057
:100380003197F1F700C0000028E030E0FC01EF7089
:10039000F070E859FF4F18C0408150E0022E02C0B3
:1003A000559547950A94E2F740FF02C018BB01C07B
:1003B00018BA40E24A95F1F7C19A40E44A95F1F73C
:1003C00018BA40E74A95F1F7215030404FEF2F3FE0
:1003D000340711F701968031910509F09FCF6ECF58
:0403E000F894FFCFBF
:00000001FF
