:1000000012C019C018C017C016C015C014C013C044
:1000100012C011C010C00FC00EC00DC00CC00BC06C
:100020000AC009C008C011241FBECFE5D4E0DEBF5E
:10003000CDBF26D029C0E4CF10BC82E289B9599A3D
:1000400086E880BD88E18AB908955D9BFECF8CB9B2
:1000500008955F9BFECF8CB10895CF93C82F8295F2
:100060008F708A3048F4805DF0DF8C2F8F708A307B
:1000700028F4805DCF91E9CF895CF6CF895CFACF17
:0C008000DBDF8AE5E2DFFFCFF894FFCF62
:00000001FF
