:1000000062C052C17BC07AC079C078C077C076C068
:1000100075C074C073C072C071C070C06FC06EC054
:100020006DC06CC06BC005010904A101A10275047B
:1000300095021500250F3500450F09300931810261
:100040007501952025014501050919012920810225
:10005000C0C0040309042403700075006C006B0029
:100060006F006D0061006E00640079002E00610079
:10007000740068002E0063007800180353007400B9
:10008000610072006B006100640072006F00690023
:100090006400120110010000000842423117000103
:1000A000010200010902220001010080320904005E
:1000B000000103000000092101010001222C0007BA
:1000C00005810308001411241FBECFE5D4E0DEBF74
:1000D000CDBF10E0A0E6B0E0EEE5F7E002C005908D
:1000E0000D92A436B107D9F710E0A4E6B0E001C044
:1000F0001D92A83AB107E1F741D02FC381CFFC018F
:1001000085E690E090938D0080938C0080818076CE
:10011000803271F58181813011F485E00895893054
:1001200049F486819781019719F581E080936400F5
:100130008FEF0895823019F480E790E013C08A3081
:1001400029F483818093700080E00895833031F436
:100150008381882369F41092600008958B3041F404
:1001600080E690E090938D0080938C0081E008956C
:1001700080E008951092640081E00895EF92FF926C
:100180000F931F93CF93DF932FE088E190E00FB69A
:10019000F894A89581BD0FBE21BDA7D1789414BA5B
:1001A0008FEF85BB17BA88BB84E083BF10926500D0
:1001B00010E0F1E0EF2EF12CCCEFD0E00FEFA8959E
:1001C000A1D1EAE6F0E040E050E0C701042E02C011
:1001D000880F991F0A94E2F784BB809585BBCE01F6
:1001E0000197F1F786B3208130E090E080959095FB
:1001F0008F7390702817390729F086B380958F7315
:10020000808311E04F5F5F4F319646305105E9F62C
:1002100014BA05BB50916B0060916C0070916D0039
:1002200040916A00242F30E0C901E4E0880F991F53
:10023000EA95E1F7807C852B80936600220F331FBF
:10024000220F331F207C262B20936700407C472BF6
:100250004093680080916F0080936900112309F436
:10026000AECF80917D0084FFAACF85E690E065E067
:1002700052D210E0A4CFA82FB92F80E090E041E047
:1002800050EA609530E009C02D91822797958795B7
:1002900010F084279527305EC8F36F5FA8F30895A8
:1002A000EADF8D939D930895CF93CFB7CF93DF93DC
:1002B000C395859BE9F7859B0BC0859B09C0859BF2
:1002C00007C0859B05C0859B03C0859B01C08BC073
:1002D0006F93C0918B00DD27CE56DF4F2F9365E5DE
:1002E000859B03C02F916F91E6CF0F931F934F9380
:1002F00020E040E15F9300B3047205FB27F93F93D0
:1003000050E03BE039C0147240642F77012F5F5FEB
:100310001EC0406810B314722F7752501FC0406443
:1003200000B32F770472D1F15F5F00C023C0406239
:1003300010B32F77147291F15F5F00C025C0047273
:100340001027515012F45D5F0000115027952C3F8B
:1003500010B3C8F614720127015027952C3FC8F638
:100360004227499300B3047210274F731150279509
:100370002C3FA8F64695469510B3147279F00127E4
:10038000015027952C3F98F66B5A60F3315000B31B
:10039000B0F600C010E41ABF002719C03B503195D9
:1003A000C31BD04010E41ABF0881033C09F10B3491
:1003B000F9F0209189001981110F1213EDCF4A81B4
:1003C000441F093651F10D3211F0013E29F7009317
:1003D00090003F915F914F911F910F912F916F91DD
:1003E000CAB7C6FD65CFDF91CF91CFBFCF9118952A
:1003F00020919000222369F310918E00112391F532
:10040000343092F130938E0020938A0010918B004B
:100410003BE0311B30938B0027C000918E000130F0
:100420000CF50AE54F7049F43091610034FD1DC0B0
:1004300000936100C2E7D0E01CC030917D0034FD24
:1004400014C000937D00CEE7D0E013C0052710E074
:1004500000C0000002BB1AC0052710E0221F1DC00B
:1004600010E021C04AE502C032ED432FC4E1D0E0E4
:1004700032E011B31462959A02B311BB54E220E842
:1004800065E320FF052702BB279517951C3FF0F673
:100490006695B8F7B1F720FF052702BB279517959A
:1004A0001C3FD0F62795179517FF052700001C3F26
:1004B00002BBB0F629913A9519F70B7D10918F0088
:1004C000110FC651D04002BB11F01093890010E407
:1004D0001ABF006211B31B7D402F4B7D54E05A952B
:1004E000F1F702BB11BB42BB74CF85B7836085BFF8
:1004F0008BB780648BBF8BE480937E008AE580930A
:100500007D0008951F93CF93DF9390918E009350B9
:1005100097FDA6C020918B0080918A008D3209F052
:100520009DC0983009F09AC0CCE0D0E0C21BD10940
:10053000CE56DF4F83EC809372008AE58093610092
:10054000109271008881807621F0CE01D8DD282FAD
:100550007CC09A8110927B008981882321F41092BB
:100560007C0022E06CC0853019F490938F0066C047
:10057000863009F04FC08B81813041F482E990E0F0
:1005800090938D0080938C0022E140C0823041F432
:1005900084EA90E090938D0080938C0022E236C034
:1005A0008330F9F48A81882341F482E590E09093C6
:1005B0008D0080938C0024E029C0813041F486E5D1
:1005C00090E090938D0080938C0024E21FC08230D5
:1005D000E1F48AE790E090938D0080938C0028E10D
:1005E00015C0813241F486EB90E090938D008093AA
:1005F0008C0029E00BC0823241F486E290E09093B7
:100600008D0080938C002CE201C020E080E4809378
:1006100071001BC0883021F421E081E990E011C015
:10062000893019F49093910009C08A3011F421E0C7
:1006300006C08B3019F48BE480937E0020E08BE7BA
:1006400090E090938D0080938C008F81882321F41B
:100650008E81821708F4282F2093620010928E005A
:100660008091610084FF49C0809162008F3F09F44E
:1006700044C0182F893008F018E0811B8093620075
:100680008091720098E8892780937200112341F1CC
:1006900020918C0030918D008091710086FF0DC0FB
:1006A000A3E7B0E080E090E0F901E80FF91FE491E2
:1006B000ED9301961817C1F708C0912FD901E3E710
:1006C000F0E08D9181939150E1F71150812F90E0EE
:1006D0001F5F0196820F931F90938D0080938C0073
:1006E00083E790E0612FDCDD612F6C5F6C3019F0E7
:1006F0008FEF809362006093610094E180B3847215
:1007000031F49150D9F710928F0010928900DF9147
:10071000CF911F9108951F93DC01162F80917D00CA
:1007200084FF07C080917E0098E8892780937E002F
:1007300003C08AE580937D00912FEFE7F0E08D9173
:10074000819391501916DCF38FE790E0612FA8DDBB
:0E0750001C5F10937D001F910895F894FFCF59
:04075E00015AFF003D
:00000001FF
