:1000000012C02CC02BC02AC029C028C027C026C0BF
:1000100025C024C023C022C021C020C01FC01EC0D4
:100020001DC01CC01BC011241FBECFE5D4E0DEBF25
:10003000CDBF11E0A8E6B1E001C01D92AC36B1071A
:10004000E1F711E0A0E6B0E0EEE8F5E102C00590CE
:100050000D92A836B107D9F702D097CAD1CF2F9207
:100060003F924F925F926F927F928F929F92AF9248
:10007000BF92CF92DF92EF92FF920F931F93CF9395
:10008000DF9378948FEF84BB85BB17BA88BB10923F
:1000900069011092680110926B0110926A01882424
:1000A000992490E1292E97E2392E80E9682E81E08B
:1000B000782E4424552481E08816910409F440C028
:1000C00082E08816910424F48114910471F00AC02E
:1000D00082E08816910409F4DDC183E0881691045A
:1000E00009F4E4C1882499248CC325E030E01AC0C7
:1000F00081E090E0022E02C0880F991F0A94E2F777
:10010000809585BB88EE93E0F3013197F1F7019775
:10011000D9F78FEF85BB88EB9BE0F3013197F1F7BF
:100120000197D9F7215030408FEF2F3F380701F763
:1001300088E893E1F3013197F1F70197D9F761C3AB
:10014000C0E1D7E28FEF85BBBE01882777FD8095A0
:10015000982F44D75B016C012BEA3AEA4AEA50E453
:1001600020D57B018C0120E030E040E85FE30BD735
:10017000882314F461E049C0C801B70120E030E0F1
:100180004FE753E4AAD618160CF03CC0C601B501DF
:1001900020E030E04AE754E4F9D55B016C0120E04F
:1001A00030E04AE755E4FDD47B018C0120E030E0EB
:1001B00040E85FE3E8D688231CF461E070E01EC0ED
:1001C000C801B70120E03FEF4FE757E486D6181685
:1001D00094F4C601B50120E030E040E251E4E1D4FE
:1001E0001CD305C0C3010197F1F761507040611540
:1001F0007105C1F70CC0C801B7010FD3CB0101973E
:10020000F1F705C0C801B70108D36A95F1F715BA2F
:10021000B1016C1B7D0B882777FD8095982FDED66A
:100220005B016C012BEA3AEA4AEA50E4BAD47B015A
:100230008C0120E030E040E85FE3A5D6882314F489
:1002400061E049C0C801B70120E030E04FE753E466
:1002500044D618160CF03CC0C601B50120E030E0D1
:100260004AE754E493D55B016C0120E030E04AE7B3
:1002700055E497D47B018C0120E030E040E85FE357
:1002800082D688231CF461E070E01EC0C801B7016B
:1002900020E03FEF4FE757E420D6181694F4C6014C
:1002A000B50120E030E040E251E47BD4B6D205C095
:1002B000C3010197F1F76150704061157105C1F7F5
:1002C0000CC0C801B701A9D2CB010197F1F705C055
:1002D000C801B701A2D26A95F1F7C456D04009F01F
:1002E00031CFC0E1D7E215BABE01882777FD8095EE
:1002F000982F74D65B016C012BEA3AEA4AEA50E483
:1003000050D47B018C0120E030E040E85FE33BD635
:10031000882314F461E049C0C801B70120E030E04F
:100320004FE753E4DAD518160CF03CC0C601B5010E
:1003300020E030E04AE754E429D55B016C0120E07D
:1003400030E04AE755E42DD47B018C0120E030E019
:1003500040E85FE318D688231CF461E070E01EC01B
:10036000C801B70120E03FEF4FE757E4B6D51816B4
:1003700094F4C601B50120E030E040E251E411D42C
:100380004CD205C0C3010197F1F76150704061156F
:100390007105C1F70CC0C801B7013FD2CB0101976D
:1003A000F1F705C0C801B70138D26A95F1F78FEFB0
:1003B00085BBB1016C1B7D0B882777FD8095982F3D
:1003C0000DD65B016C012BEA3AEA4AEA50E4E9D324
:1003D0007B018C0120E030E040E85FE3D4D5882346
:1003E00014F461E049C0C801B70120E030E04FE7F4
:1003F00053E473D518160CF03CC0C601B50120E0DB
:1004000030E04AE754E4C2D45B016C0120E030E004
:100410004AE755E4C6D37B018C0120E030E040E898
:100420005FE3B1D588231CF461E070E01EC0C80111
:10043000B70120E03FEF4FE757E44FD5181694F48B
:10044000C601B50120E030E040E251E4AAD3E5D195
:1004500005C0C3010197F1F7615070406115710546
:10046000C1F70CC0C801B701D8D1CB010197F1F792
:1004700005C0C801B701D1D16A95F1F7C456D04083
:1004800009F031CF88E893E1F3013197F1F7019753
:10049000D9F7B7C12FE025BB80ED97E0F301319785
:1004A000F1F70197D9F72150B0F7ABC1C0E1D7E21E
:1004B0008CEF85BBBE01882777FD8095982F8ED560
:1004C0005B016C012BEA3AEA4AEA50E46AD37B0109
:1004D0008C0120E030E040E85FE355D5882314F438
:1004E00061E049C0C801B70120E030E04FE753E4C4
:1004F000F4D418160CF03CC0C601B50120E030E081
:100500004AE754E443D45B016C0120E030E04AE761
:1005100055E447D37B018C0120E030E040E85FE305
:1005200032D588231CF461E070E01EC0C801B70119
:1005300020E03FEF4FE757E4D0D4181694F4C601FB
:10054000B50120E030E040E251E42BD366D105C094
:10055000C3010197F1F76150704061157105C1F752
:100560000CC0C801B70159D1CB010197F1F705C003
:10057000C801B70152D16A95F1F783E085BBB1019B
:100580006C1B7D0B882777FD8095982F27D55B0105
:100590006C012BEA3AEA4AEA50E403D37B018C016E
:1005A00020E030E040E85FE3EED4882314F461E01B
:1005B00049C0C801B70120E030E04FE753E48DD4D3
:1005C00018160CF03CC0C601B50120E030E04AE747
:1005D00054E4DCD35B016C0120E030E04AE755E4F1
:1005E000E0D27B018C0120E030E040E85FE3CBD437
:1005F00088231CF461E070E01EC0C801B70120E050
:100600003FEF4FE757E469D4181694F4C601B501DB
:1006100020E030E040E251E4C4D2FFD005C0C30185
:100620000197F1F76150704061157105C1F70CC079
:10063000C801B701F2D0CB010197F1F705C0C8019D
:10064000B701EBD06A95F1F7C456D04009F030CF2E
:10065000C0E1D7E283E085BBBE01882777FD8095A6
:10066000982FBCD45B016C012BEA3AEA4AEA50E4C9
:1006700098D27B018C0120E030E040E85FE383D436
:10068000882314F461E049C0C801B70120E030E0DC
:100690004FE753E422D418160CF03CC0C601B50154
:1006A00020E030E04AE754E471D35B016C0120E0C4
:1006B00030E04AE755E475D27B018C0120E030E060
:1006C00040E85FE360D488231CF461E070E01EC062
:1006D000C801B70120E03FEF4FE757E4FED31816FB
:1006E00094F4C601B50120E030E040E251E459D273
:1006F00094D005C0C3010197F1F7615070406115B6
:100700007105C1F70CC0C801B70187D0CB010197B3
:10071000F1F705C0C801B70180D06A95F1F78CEFF9
:1007200085BBB1016C1B7D0B882777FD8095982FC9
:1007300055D45B016C012BEA3AEA4AEA50E431D223
:100740007B018C0120E030E040E85FE31CD488238B
:1007500014F461E049C0C801B70120E030E04FE780
:1007600053E4BBD318160CF03CC0C601B50120E021
:1007700030E04AE754E40AD35B016C0120E030E04A
:100780004AE755E40ED27B018C0120E030E040E8DE
:100790005FE3F9D388231CF461E070E01EC0C80158
:1007A000B70120E03FEF4FE757E497D3181694F4D2
:1007B000C601B50120E030E040E251E4F2D12DD095
:1007C00005C0C3010197F1F76150704061157105D3
:1007D000C1F70CC0C801B70120D0CB010197F1F7D8
:1007E00005C0C801B70119D06A95F1F7C456D040C9
:1007F00009F030CF88E893E1F3013197F1F70197E1
:10080000D9F70894411C511C86E0481651040CF499
:1008100052CC0894811C911C4CCCEF92FF920F9308
:100820001F937B018C0120E030E040E05FE480D347
:1008300088237CF0C801B70120E030E040E05FE4AD
:100840005ED126D49B01AC0120503040404050483E
:1008500005C0C801B7011CD49B01AC01B901CA0194
:100860001F910F91FF90EF900895A0E0B0E0EAE3B0
:10087000F4E054C6DC012B01FA019C91923008F49B
:1008800039C1EB018881823008F433C1943069F4B6
:10089000843009F02FC111969C9111978981981786
:1008A00009F428C1A0E6B0E025C1843009F421C1D3
:1008B0008230A9F4923009F01DC19A01AD0188E09F
:1008C000EA010990AE01E90109929E018150C1F748
:1008D000E201898111969C918923818308C192301C
:1008E00009F407C112962D903C901397EB018A8171
:1008F0009B811496AD90BD90CD90DC901797EC80C5
:10090000FD800E811F819101281B390BB90137FF32
:1009100004C066277727621B730B603271050CF0E9
:1009200061C0121613066CF537014801062E04C08B
:1009300096948794779467940A94D2F721E030E0F4
:1009400040E050E004C0220F331F441F551F6A953A
:10095000D2F721503040404050402E213F214023CB
:100960005123211531054105510521F021E030E0E9
:1009700040E050E079018A01E628F7280829192982
:100980003CC0232BD1F1260E371E35014601062E21
:1009900004C096948794779467940A94D2F721E0E0
:1009A00030E040E050E004C0220F331F441F551FC9
:1009B0006A95D2F721503040404050402A213B21D7
:1009C0004C215D21211531054105510521F021E022
:1009D00030E040E050E059016A01A628B728C82855
:1009E000D9280BC0821593052CF01C01AA24BB2426
:1009F000650103C0EE24FF24870111969C91D2016A
:100A000011968C91981709F445C0992339F0A801E3
:100A100097012A193B094C095D0906C0A6019501F9
:100A20002E193F09400B510B57FD08C0118233822C
:100A3000228224833583468357831DC081E08183CE
:100A40003382228288279927DC01821B930BA40B17
:100A5000B50B84839583A683B7830DC0220F331F04
:100A6000441F551F24833583468357838281938196
:100A70000197938382832481358146815781DA01EE
:100A8000C9010197A109B1098F5F9F4FAF4FBF43C4
:100A900028F30BC0918333822282EA0CFB1C0C1DCD
:100AA0001D1DE482F5820683178383E08083248101
:100AB00035814681578157FF1AC0C901AA2797FD82
:100AC000A095BA2F81709070A070B0705695479520
:100AD00037952795822B932BA42BB52B8483958355
:100AE000A683B78382819381019693838283DF01FA
:100AF00001C0D201CD01CDB7DEB7E2E12BC5A0E246
:100B0000B0E0E4E8F5E016C569837A838B839C83C3
:100B10002D833E834F835887E9E0EE2EF12CEC0EB7
:100B2000FD1ECE010196B70128D48E010F5E1F4F26
:100B3000CE010596B80121D48A8991E089278A8B54
:100B4000C701B801AE01475E5F4F8FDE41D3A0966B
:100B5000E6E00CC5A0E2B0E0EFEAF5E0EBC46983A3
:100B60007A838B839C832D833E834F835887F9E060
:100B7000EF2EF12CEC0EFD1ECE010196B701FDD338
:100B80008E010F5E1F4FCE010596B801F6D3C70147
:100B9000B801AE01475E5F4F68DE1AD3A096E6E06B
:100BA000E5C4A0E2B0E0E6EDF5E0B8C469837A837D
:100BB0008B839C832D833E834F835887CE01019680
:100BC000BE01675F7F4FD9D3CE010596BE016F5E30
:100BD0007F4FD3D39985923088F089898230C8F0CD
:100BE000943019F4823051F404C0843029F49230E6
:100BF00081F480E690E0C6C0923049F420E09A8506
:100C00008A89981321E02A87CE010996BBC08230D9
:100C100049F420E09A858A89981321E02A8BCE0135
:100C20004196B0C02D843E844F8458886D887E885C
:100C30008F88988CEE24FF248701AA24BB246501A9
:100C400040E050E060E070E0E0E0F0E0C101817081
:100C50009070892BE9F0E60CF71C081D191D9A010C
:100C6000AB012A0D3B1D4C1D5D1D80E090E0A0E016
:100C7000B0E0E614F7040805190520F481E090E0DF
:100C8000A0E0B0E0BA01A901480F591F6A1F7B1FFD
:100C9000AA0CBB1CCC1CDD1C97FE08C081E090E0B8
:100CA000A0E0B0E0A82AB92ACA2ADB2A3196E032AD
:100CB000F10549F0660C771C881C991C56944794E2
:100CC00037942794C3CFFA85EA892B893C898B8591
:100CD0009C85280F391F2E5F3F4F17C0CA018170B6
:100CE0009070892B61F016950795F794E79480E052
:100CF00090E0A0E0B0E8E82AF92A0A2B1B2B7695B1
:100D00006795579547952F5F3F4F77FDE7CF0CC00D
:100D1000440F551F661F771F17FD4160EE0CFF1C27
:100D2000001F111F21503040403090E0590790E0E3
:100D3000690790E4790760F32B8F3C8FDB01CA01D0
:100D40008F779070A070B07080349105A105B105C7
:100D500061F447FD0AC0E114F1040105110529F011
:100D6000405C5F4F6F4F7F4F40781A8EFE1711F037
:100D700081E08A8F4D8F5E8F6F8F78A383E0898F9C
:100D8000CE01499625D2A096E2E1E4C3A8E1B0E005
:100D9000EBECF6E0CBC369837A838B839C832D8352
:100DA0003E834F835887B9E0EB2EF12CEC0EFD1EED
:100DB000CE010196B701E1D28E010F5E1F4FCE0129
:100DC0000596B801DAD22985223008F47EC0398927
:100DD000323010F4B8017CC08A859A8989278A87C5
:100DE000243011F0223031F4231709F06EC060E690
:100DF00070E06EC0343039F41D861E861F86188A56
:100E00001C861B8604C0323021F484E08987B70138
:100E10005FC02B853C858B899C89281B390B3C87BF
:100E20002B87ED84FE840F851889AD88BE88CF8816
:100E3000D88CEA14FB040C051D0540F4EE0CFF1CD5
:100E4000001F111F215030403C872B8720E030E0ED
:100E500040E050E080E090E0A0E0B0E460E070E0CE
:100E6000EA14FB040C051D0540F0282B392B4A2BF6
:100E70005B2BEA18FB080C091D09B695A7959795F9
:100E80008795EE0CFF1C001F111F6F5F7F4F6F31A6
:100E9000710531F7DA01C9018F779070A070B070D9
:100EA00080349105A105B10561F427FD0AC0E11464
:100EB000F1040105110529F0205C3F4F4F4F5F4FB2
:100EC00020782D873E874F87588BBE01675F7F4F05
:100ED000CB017ED16896EAE045C3A8E1B0E0E2E745
:100EE000F7E028C369837A838B839C832D833E83B9
:100EF0004F83588789E0E82EF12CEC0EFD1ECE01C1
:100F00000196B7013AD28E010F5E1F4FCE010596B2
:100F1000B80133D28985823038F08989823020F057
:100F2000C701B801A2D201C08FEF6896E6E01EC3E8
:100F3000A8E1B0E0EDE9F7E0FDC269837A838B8335
:100F40009C832D833E834F83588789E0E82EF12CC4
:100F5000EC0EFD1ECE010196B7010FD28E010F5E81
:100F60001F4FCE010596B80108D28985823038F02E
:100F70008989823020F0C701B80177D201C08FEF94
:100F80006896E6E0F3C2A8E1B0E0E8ECF7E0D2C290
:100F900069837A838B839C832D833E834F83588719
:100FA00089E0E82EF12CEC0EFD1ECE010196B70172
:100FB000E4D18E010F5E1F4FCE010596B801DDD141
:100FC0008985823038F08989823020F0C701B801E4
:100FD0004CD201C081E06896E6E0C8C2A8E0B0E06B
:100FE000E3EFF7E0A4C29B01AC0183E08983DA015F
:100FF000C9018827B7FD83959927AA27BB27B82E53
:10100000211531054105510519F482E0898339C064
:101010008823A9F0203080E0380780E0480780E886
:10102000580729F460E070E080E09FEC2EC0EE24C9
:10103000FF248701E21AF30A040B150B02C07901A1
:101040008A018EE1C82ED12CDC82CB82ED82FE8219
:101050000F831887C801B7016CD0019718161906BD
:1010600084F4082E04C0EE0CFF1C001F111F0A940C
:10107000D2F7ED82FE820F831887C81AD90ADC8264
:10108000CB82BA82CE010196A3D02896E9E06BC24A
:10109000ACE0B0E0EDE4F8E051C269837A838B8381
:1010A0009C83CE010196BE016B5F7F4F66D18D811F
:1010B000823061F1823050F1843021F48E818823B6
:1010C00051F12EC02F81388537FD20C06E812F3120
:1010D00031051CF06623F9F023C08EE190E0821BFD
:1010E000930B29853A854B855C8504C056954795B9
:1010F000379527958A95D2F76623B1F0509540959C
:10110000309521953F4F4F4F5F4F0EC020E030E0AC
:1011100040E050E009C02FEF3FEF4FEF5FE704C022
:1011200020E030E040E050E8B901CA012C96E2E04E
:1011300021C2EF92FF920F931F937B018C0180E0FD
:10114000E81680E0F80681E0080780E0180788F4D8
:101150008FEFE816F1040105110531F028F088E061
:1011600090E0A0E0B0E017C080E090E0A0E0B0E048
:1011700012C080E0E81680E0F80680E0080781E011
:10118000180728F088E190E0A0E0B0E004C080E11A
:1011900090E0A0E0B0E020E230E040E050E0281B2A
:1011A000390B4A0B5B0B04C016950795F794E7942F
:1011B0008A95D2F7F701E859FF4F8081281B310942
:1011C00041095109C9011F910F91FF90EF900895B6
:1011D000DF92EF92FF920F931F93FC01E480F58062
:1011E00006811781D1808081823048F480E090E0D0
:1011F000A0E1B0E0E82AF92A0A2B1B2BA5C0843015
:1012000009F49FC0823021F4EE24FF24870105C039
:10121000E114F1040105110519F4E0E0F0E096C0D5
:10122000628173819FEF623879070CF05BC022E81E
:101230003FEF261B370B2A3131052CF020E030E040
:1012400040E050E02AC0B801A701022E04C0769504
:101250006795579547950A94D2F781E090E0A0E012
:10126000B0E004C0880F991FAA1FBB1F2A95D2F7B0
:101270000197A109B1098E219F21A023B1230097D5
:10128000A105B10521F081E090E0A0E0B0E09A0175
:10129000AB01282B392B4A2B5B2BDA01C9018F7745
:1012A0009070A070B07080349105A105B10539F43B
:1012B00027FF09C0205C3F4F4F4F5F4F04C0215CA8
:1012C0003F4F4F4F5F4FE0E0F0E02030A0E03A07A3
:1012D000A0E04A07A0E45A0710F0E1E0F0E079014D
:1012E0008A0127C06038710564F5FB01E158FF4FA2
:1012F000D801C7018F779070A070B07080349105CD
:10130000A105B10539F4E7FE0DC080E490E0A0E04E
:10131000B0E004C08FE390E0A0E0B0E0E80EF91E7A
:101320000A1F1B1F17FF05C016950795F794E79432
:10133000319687E016950795F794E7948A95D1F74B
:1013400005C0EE24FF248701EFEFF0E06E2F6795D4
:1013500066276795902F9F77D794DD24D7948E2F9B
:101360008695492F462B582F5D29B701CA011F9139
:101370000F91FF90EF90DF900895FC01DB01408119
:1013800051812281622F6F7770E0221F2227221F56
:101390009381892F880F822B282F30E0991F99275E
:1013A000991F11969C93119721153105A9F54115A7
:1013B00051056105710511F482E037C082E89FEFA5
:1013C00013969C938E9312979A01AB0167E0220FBC
:1013D000331F441F551F6A95D1F783E08C930DC0CE
:1013E000220F331F441F551F12968D919C91139706
:1013F000019713969C938E931297203080E03807C4
:1014000080E0480780E4580758F314962D933D93E5
:101410004D935C93179708952F3F310579F441154B
:1014200051056105710519F484E08C93089564FFFA
:1014300003C081E08C9312C01C9210C02F57304023
:1014400013963C932E93129783E08C9387E0440F7E
:10145000551F661F771F8A95D1F7706414964D93B8
:101460005D936D937C93179708951F93DC01FB01A7
:101470009C91923008F447C08081823008F443C0C8
:10148000943051F411961C91843099F58181682F24
:1014900070E0611B71093FC0843021F0923031F45B
:1014A0008230B9F18181882389F12DC011961C9178
:1014B00011978230F1F081811817D9F412962D918D
:1014C0003C911397828193818217930794F0281798
:1014D0003907BCF014968D919D910D90BC91A02D73
:1014E0002481358146815781281739074A075B07D0
:1014F00018F4112341F00AC082179307A407B50717
:1015000040F4112319F061E070E005C06FEF7FEF48
:1015100002C060E070E0CB011F9108952F923F92CE
:101520004F925F926F927F928F929F92AF92BF92F3
:10153000CF92DF92EF92FF920F931F93CF93DF939F
:10154000CDB7DEB7CA1BDB0B0FB6F894DEBF0FBEFC
:10155000CDBF09942A88398848885F846E847D8449
:101560008C849B84AA84B984C884DF80EE80FD804B
:101570000C811B81AA81B981CE0FD11D0FB6F894C1
:0E158000DEBF0FBECDBFED010895F894FFCF82
:10158E00000000000000000000010202030303033C
:10159E0004040404040404040505050505050505F5
:1015AE0005050505050505050606060606060606D5
:1015BE0006060606060606060606060606060606BD
:1015CE0006060606060606060707070707070707A5
:1015DE00070707070707070707070707070707078D
:1015EE00070707070707070707070707070707077D
:1015FE00070707070707070707070707070707076D
:10160E000707070707070707080808080808080854
:10161E00080808080808080808080808080808083C
:10162E00080808080808080808080808080808082C
:10163E00080808080808080808080808080808081C
:10164E00080808080808080808080808080808080C
:10165E0008080808080808080808080808080808FC
:10166E0008080808080808080808080808080808EC
:10167E0008080808080808080808080808080808DC
:08168E00080808080808080814
:00000001FF
