:020000040000FA
:020000000528D1
:0800080061298316FB3085001D
:1000100002308600831207309F00FF308600850182
:100020007F308100A001A101A201A301A701A801C5
:10003000A401A501A6018720A8202008AA3A031D33
:100040001B28AB208720A8202008003A031D1B286E
:10005000F430A000E320AB207D20C8208720A8201A
:100060002008FA3A031D1B284030B000AE017D2065
:10007000AE0B3728861853287C30B1001030AA0008
:100080002030AB000830AD000430AC00CF30AF0002
:10009000F330B0001030B5002030B6000430B300AB
:1000A0000830B40069283B30B1000430AB00103098
:1000B000AA000830AD002030AC00EB30AF00D730E4
:1000C000B0001030B5000430B6002030B300083066
:1000D000B400831686018312AB208720A820200855
:1000E000A400AB208720A8202008A500AB208720F3
:1000F000A8202008A600F8206C283108A900A90B28
:100100007F28000000000000000000000800051823
:100110008728051C89289E209E209E209E209E20A8
:100120009E209E209E200518932885189C2821102B
:10013000C320051C992808002114982805189E281A
:100140000508A300A30CA30CA00C051CA5280800FF
:10015000AF207D2008008316051483120800831643
:100160000510831205100800831685108312851070
:1001700008008316851483120800A00C0318C228F7
:10018000B420C328B920051CC3280518C5280800B9
:10019000A8208120B4208120AB200518CD28BD20C7
:1001A000BD20BD20BD20BD20BD20BD20BD20E02044
:1001B000C320B920C320051CDB28851CDD280800CE
:1001C0002118B928B428A2012018A20AA018A20A4E
:1001D0002019A20AA019A20A201AA20AA01AA20A89
:1001E000201BA20AA01BA20A2110221C2114080015
:1001F0003213241C32173210A41C3214B210241DE6
:10020000B2140608BC39320486002508FF39031DE4
:1002100037212608FF3903190800A41E23297D2051
:10022000A80A2818AC0E2C083305AE00281CAD0E09
:100230002D083405AE07320830052E078600B200BF
:10024000A60F0F2908007D20A80A281CAC0E2C0838
:100250003305AE002818AD0E2D083405AE07320860
:1002600030052E078600B200A60B23290800241EA5
:100270004D297D20A70A271CAA0E2A083505AE00A5
:100280002718AB0E2B083605AE0732082F052E07B0
:100290008600B200A50F392908007D20A70A27187B
:1002A000AA0E2A083505AE00271CAB0E2B08360512
:1002B000AE0732082F052E078600B200A50B4D2988
:0402C0000800090029
:02400E00303F41
:00000001FF
