:10000000A7C0ACC2CAC0BFC0BEC0BDC0BCC0BBC020
:10001000BAC0B9C0B8C0B7C0B6C0B5C0B4C0B3C02C
:10002000B2C0B1C0B0C0351E1F2021222324252616
:10003000272D2E440062141A0815171C180C1213D1
:100040002F3000595A5B041607090A0B0D0E0F33A7
:100050003432005C5D5E641D1B06190511103637D5
:100060003800635F60612C2A2B5828294C0000005F
:10007000560052514F503A3B3C3D3E3F4041424377
:100080004A4D54555745000039000000000000005B
:10009000000000000000022000010440088005016B
:1000A0000906A101050719E029E7150025017501D9
:1000B000950881029501750881039505750105086C
:1000C000190129059102950175039103950675089B
:1000D000150025650507190029658100C00403097D
:1000E000042403700075006C006B006F006D0061EC
:1000F000006E00640079002E006100740068002E1C
:100100000063007800160341006D0069006B006514
:1001100000790032007500730062001201100100C6
:10012000000008424231E1000101020001090222FF
:1001300000010100803209040000010301010009EF
:100140002101010001223F000705810308000A0088
:1001500011241FBECFE5D4E0DEBFCDBF10E0A0E686
:10016000B0E0E2E5FAE002C005900D92A436B107D6
:10017000D9F710E0A4E6B0E001C01D92AC3AB10797
:10018000E1F728D164C43CCF8C9A949884E591E03F
:100190000197F1F7949A8C9808951F920F920FB6D9
:1001A0000F9211242F933F938F939F9383992CC089
:1001B00080917200882339F481E08093720010925C
:1001C00074001092730030917400383090F4849968
:1001D0000DC02091730080E890E0032E02C0959539
:1001E00087950A94E2F7282B209373003F5F3093A2
:1001F000740080917400883038F010927200109270
:10020000740081E0809375009F918F913F912F91B1
:100210000F900FBE0F901F901895839BFECF80EA22
:100220008A95F1F7B1DF10927500809173000895FF
:10023000809175008823E1F3F0DF08951092720039
:1002400010927300109274008B98839A85B788601F
:1002500085BF85B78B7F85BF8BB780688BBF789450
:1002600093DF0895282F30E0F901EA5DFF4F4491B4
:100270008056883010F090E004C02A5C3F4FF901AE
:100280009491442389F080916100883068F4E82FCC
:10029000F0E0E859FF4F40838F5F8093610049335E
:1002A00019F481E08093660080916800982B909308
:1002B00068000895282F30E0F901EA5DFF4F44916E
:1002C0008056883010F030E004C02A5C3F4FF901BE
:1002D0003491493381F480916100883058F5E82FDA
:1002E000F0E0E859FF4F40838F5F8093610081E029
:1002F000809366001FC04423E9F02091610092E0E2
:1003000015C0E92FF0E0E859FF4F8081841769F4A8
:1003100007C0E92FF0E0E859FF4F818180839F5F9C
:100320009730B8F310926F0021509F5F921748F3F7
:1003300020936100309580916800382330936800E5
:100340000895FC0188E690E09093910080939000DE
:1003500080818076803271F58181813011F488E06E
:100360000895893049F486819781019719F581E0D4
:10037000809364008FEF0895823019F487E690E04F
:1003800013C08A3029F483818093670080E0089548
:10039000833031F48381882369F4109260000895DA
:1003A0008B3041F480E690E0909391008093900030
:1003B00081E0089580E00895FC0180916400882325
:1003C00029F0613019F480818093650010926400F7
:1003D00081E00895FF920F931F93CF93DF932FE057
:1003E00088E190E00FB6F894A89581BD0FBE21BDBD
:1003F00085E083BF8E9A88E0E8E6F0E0DF011D9299
:100400008A95E9F7CCD11ADF789400E0C0E1D0E01A
:10041000FF24F39401C0012FA895CED180917500DF
:1004200080917500882391F0F8DE982F969580FDD5
:1004300003C0892F17DF02C0892F3CDF8091810024
:1004400084FF04C088E690E068E0DED208B600FED3
:10045000E3CFF8BE80916600882321F0969A219719
:1004600019F025C0969823C0109266004091610053
:1004700022E030E013C0F901E859FF4F8081893351
:1004800059F404C02F5F3F4F81818193273031059C
:10049000CCF310926F0041502F5F3F4F842F90E0BC
:1004A0002817390744F340936100C0E1D0E0109170
:1004B0006700112309F4B0CF053010F00550ACCF20
:1004C00080916600882321F082E6F4DE10926600B7
:1004D0008091810084FF9FCF88E690E068E094D20D
:1004E0009ACFDF93CF93CDB7DEB728970FB6F894A6
:1004F000DEBF0FBECDBF982F8091810084FFFCCF5F
:10050000FE01319688E0DF011D928A95E9F7998313
:100510006B83CF0168E078D228960FB6F894DEBFDF
:100520000FBECDBFCF91DF910895A82FB92F80E0E6
:1005300090E041E050EA609530E009C02D918227BB
:100540009795879510F084279527305EC8F36F5FE5
:10055000A8F30895EADF8D939D930895CF93CFB7C5
:10056000CF93DF93C395859BE9F7859B0BC0859B54
:1005700009C0859B07C0859B05C0859B03C0859BE3
:1005800001C08BC06F93C0918F00DD27CA56DF4F2B
:100590002F9365E5859B03C02F916F91E6CF0F9355
:1005A0001F934F9320E040E15F9300B3047205FB7B
:1005B00027F93F9350E03BE039C0147240642F7735
:1005C000012F5F5F1EC0406810B314722F77525026
:1005D0001FC0406400B32F770472D1F15F5F00C089
:1005E00023C0406210B32F77147291F15F5F00C097
:1005F00025C004721027515012F45D5F00001150A5
:1006000027952C3F10B3C8F6147201270150279587
:100610002C3FC8F64227499300B3047210274F734A
:10062000115027952C3FA8F64695469510B31472A5
:1006300079F00127015027952C3F98F66B5A60F30B
:10064000315000B3B0F600C010E41ABF002719C043
:100650003B503195C31BD04010E41ABF0881033CC6
:1006600009F10B34F9F020918D001981110F12134B
:10067000EDCF4A81441F093651F10D3211F0013E90
:1006800029F7009394003F915F914F911F910F9133
:100690002F916F91CAB7C6FD65CFDF91CF91CFBFC4
:1006A000CF91189520919400222369F31091920024
:1006B000112391F5343092F13093920020938E0003
:1006C00010918F003BE0311B30938F0027C00091C9
:1006D000920001300CF50AE54F7049F43091620048
:1006E00034FD1DC000936200C6E7D0E01CC030910D
:1006F000810034FD14C000938100C2E8D0E013C033
:10070000052710E000C0000002BB1AC0052710E05A
:10071000221F1DC010E021C04AE502C032ED432F68
:10072000C4E1D0E032E011B31462959A02B311BB78
:1007300054E220E865E320FF052702BB27951795C3
:100740001C3FF0F66695B8F7B1F720FF052702BB0E
:10075000279517951C3FD0F62795179517FF052766
:1007600000001C3F02BBB0F629913A9519F70B7DAA
:1007700010919300110FC651D04002BB11F010939D
:100780008D0010E41ABF006211B31B7D402F4B7D1A
:1007900054E05A95F1F702BB11BB42BB74CF85B749
:1007A000836085BF8BB780648BBF8BE480938200AE
:1007B0008AE58093810008951F93CF93DF93609122
:1007C0009200635067FDC4C080918F00CCE0D0E000
:1007D000C81BD109CA56DF4F80918E008D3209F0B7
:1007E000A4C0683009F0B2C083EC809376008AE53B
:1007F00080936200109270008881807641F0CE0173
:100800000E94A101282F8F3F09F47EC084C09A81E5
:1008100010927F008981882321F41092800022E0C9
:100820006CC0853019F49093930066C0863009F04F
:100830004FC08B81813041F48BE191E09093910026
:100840008093900022E140C0823041F48DE291E03B
:10085000909391008093900022E236C08330F9F4A7
:100860008A81882341F48DED90E0909391008093EC
:10087000900024E029C0813041F481EE90E0909313
:1008800091008093900024E21FC08230E1F485E063
:1008900091E0909391008093900026E115C0813201
:1008A00041F48FE391E0909391008093900029E0D0
:1008B0000BC0823241F48EE990E0909391008093D6
:1008C00090002FE301C020E080E48093700023C0FB
:1008D000883021F421E085E990E011C0893019F4D5
:1008E0009093950009C08A3011F421E006C08B3046
:1008F00019F48BE48093820020E08FE790E09093DE
:1009000091008093900007C0888187FD2E8180E848
:100910008093700006C08F81882319F48E8182171E
:1009200008F0822F8093630011C08091700087FFD0
:100930000DC0CE010E94DC018F3F21F48EE1809337
:10094000620004C0882311F010926300109292009C
:100950008091620084FF4AC0809163008F3F09F458
:1009600045C0182F893008F018E0811B8093630080
:100970008091760098E8892780937600112341F1D1
:1009800020919000309191008091700086FF0DC001
:10099000A7E7B0E080E090E0F901E80FF91FE491EB
:1009A000ED9301961817C1F708C0912FD901E7E719
:1009B000F0E08D9181939150E1F71150812F90E0FB
:1009C0001F5F0196820F931F909391008093900078
:1009D00087E790E0612F0E94AA02612F6C5F6C3064
:1009E00019F08FEF809363006093620094E180B30D
:1009F000847231F49150D9F71092930010928D00C7
:100A0000DF91CF911F9108951F93DC01162F8091E4
:100A1000810084FF07C08091820098E88927809335
:100A2000820003C08AE580938100912FE3E8F0E023
:100A30008D91819391501916DCF383E890E0612F3A
:100A40000E94AA021C5F109381001F910895F894E0
:020A5000FFCFD6
:040A520001025AFF44
:00000001FF
