:10000000A7C0A3C2C1C0BFC0BEC0BDC0BCC0BBC032
:10001000BAC0B9C0B8C0B7C0B6C0B5C0B4C0B3C02C
:10002000B2C0B1C0B0C0351E1F2021222324252616
:10003000272D2E440062141A0815171C180C1213D1
:100040002F3000595A5B041607090A0B0D0E0F33A7
:100050003432005C5D5E641D1B06190511103637D5
:100060003800635F60612C2A2B5828294C0000005F
:10007000560052514F503A3B3C3D3E3F4041424377
:1000800076775455577500003900000000000000D5
:10009000000000000000022000010440088005016B
:1000A0000906A101050719E029E7150025017501D9
:1000B000950881029501750881039505750105086C
:1000C000190129059102950175039103950675089B
:1000D000150025650507190029658100C00403097D
:1000E000042403700075006C006B006F006D0061EC
:1000F000006E00640079002E006100740068002E1C
:100100000063007800160341006D0069006B006514
:1001100000790032007500730062001201100100C6
:10012000000008424231E1000101020001090222FF
:1001300000010100803209040000010301010009EF
:100140002101010001223F000705810308000A0088
:1001500011241FBECFE5D4E0DEBFCDBF10E0A0E686
:10016000B0E0E8E3FAE002C005900D92A436B107D2
:10017000D9F710E0A4E6B0E001C01D92AD3AB10796
:10018000E1F73CD157C43CCF1F920F920FB60F92AC
:1001900011242F933F938F939F93839930C0809125
:1001A0007300882339F481E0809373001092750006
:1001B0001092640030917500383090F484990DC02D
:1001C00080E890E0032E02C0959587950A94E2F7A7
:1001D00020916400282B209364003F5F30937500CA
:1001E00080917500883058F010927300109275005D
:1001F000809164008093740081E0809376009F91E9
:100200008F913F912F910F900FBE0F901F901895D7
:10021000839BFECF80EA8A95F1F78C9A949884E5C7
:1002200091E00197F1F7949A8C9810927600809162
:1002300074000895809176008823E1F3E9DF089542
:100240001092730010927400109275008B98839A2C
:1002500085B7886085BF85B78B7F85BF8BB7806882
:100260008BBF78948C9A949884E591E00197F1F78C
:10027000949A8C980895282F30E0F901EA5DFF4F99
:1002800044918056883010F090E004C02A5C3F4FC3
:10029000F9019491442389F080916100883068F4D9
:1002A000E82FF0E0E759FF4F40838F5F80936100B4
:1002B000493319F481E08093670080916900982B9D
:1002C000909369000895282F30E0F901EA5DFF4F0F
:1002D00064918056883010F050E004C02A5C3F4F93
:1002E000F9015491693381F4809161008830B0F54F
:1002F000E82FF0E0E759FF4F60838F5F8093610044
:1003000081E0809367002AC0662341F190916100EB
:1003100042E020E030E015C0A42FB0E0FD01E75935
:10032000FF4F8081861719F42F5F3F4F9150F901DD
:10033000E759FF4FEA0FFB1F8081A759BF4F8C93EE
:100340004F5F491748F39093610006C0E92FF0E032
:10035000E759FF4F10829F5F9830C0F3509580910E
:1003600069005823509369000895FC0189E690E0E4
:10037000909392008093910080818076803271F515
:100380008181813011F488E00895893049F48681B3
:100390009781019719F581E0809365008FEF0895AB
:1003A000823019F488E690E013C08A3029F4838102
:1003B0008093680080E00895833031F4838188233E
:1003C00069F41092600008958B3041F480E690E06B
:1003D000909392008093910081E0089580E00895C9
:1003E000FC0180916500882329F0613019F4808137
:1003F000809366001092650081E00895DF92EF928D
:10040000FF920F931F93CF93DF932FE088E190E04B
:100410000FB6F894A89581BD0FBE21BD84E083BFBF
:100420008E9A88E0E9E6F0E0DF011D928A95E9F70F
:10043000ADD106DF7894C0E1D0E0EE2410E0FF24D7
:10044000DD24D39402C0012F102FA895ACD1809148
:1004500076000EC0DDDE982F969580FD06C0892FB0
:100460000ADF969AEE24E39403C0892F2CDF11E073
:1004700080917600882371F7012FEE2051F0809152
:10048000820084FF06C089E690E068E0B1D29698C9
:10049000EE2408B600FED7CFD8BE8091670088232F
:1004A00029F1219719F5109267004091610022E02F
:1004B00030E013C0F901E759FF4F8081893359F4C7
:1004C00004C02F5F3F4F8181819327303105CCF3EA
:1004D0001092700041502F5F3F4F842F90E02817FB
:1004E000390744F340936100C0E1D0E08F2D8F5F66
:1004F000853018F0BCEFFB0EA6CFF09068001123FA
:1005000009F4A1CF8091820084FF9ECF89E690E01C
:1005100068E06ED200E098CFA82FB92F80E090E07D
:1005200041E050EA609530E009C02D91822797950F
:10053000879510F084279527305EC8F36F5FA8F386
:100540000895EADF8D939D930895CF93CFB7CF930E
:10055000DF93C395859BE9F7859B0BC0859B09C0FD
:10056000859B07C0859B05C0859B03C0859B01C0FB
:100570008BC06F93C0919000DD27C956DF4F2F933A
:1005800065E5859B03C02F916F91E6CF0F931F9375
:100590004F9320E040E15F9300B3047205FB27F91D
:1005A0003F9350E03BE039C0147240642F77012F35
:1005B0005F5F1EC0406810B314722F7752501FC087
:1005C000406400B32F770472D1F15F5F00C023C095
:1005D000406210B32F77147291F15F5F00C025C0A5
:1005E00004721027515012F45D5F000011502795DE
:1005F0002C3F10B3C8F614720127015027952C3FE9
:10060000C8F64227499300B3047210274F73115064
:1006100027952C3FA8F64695469510B3147279F0AD
:100620000127015027952C3F98F66B5A60F3315003
:1006300000B3B0F600C010E41ABF002719C03B5049
:100640003195C31BD04010E41ABF0881033C09F167
:100650000B34F9F020918E001981110F1213EDCF98
:100660004A81441F093651F10D3211F0013E29F73C
:10067000009395003F915F914F911F910F912F91A2
:100680006F91CAB7C6FD65CFDF91CF91CFBFCF9134
:10069000189520919500222369F31091930011235E
:1006A00091F5343092F13093930020938F001091A4
:1006B00090003BE0311B3093900027C000919300E5
:1006C00001300CF50AE54F7049F43091620034FDB9
:1006D0001DC000936200C7E7D0E01CC030918200CB
:1006E00034FD14C000938200C3E8D0E013C0052796
:1006F00010E000C0000002BB1AC0052710E0221F56
:100700001DC010E021C04AE502C032ED432FC4E114
:10071000D0E032E011B31462959A02B311BB54E2F7
:1007200020E865E320FF052702BB279517951C3FAE
:10073000F0F66695B8F7B1F720FF052702BB2795BD
:1007400017951C3FD0F62795179517FF0527000032
:100750001C3F02BBB0F629913A9519F70B7D109119
:100760009400110FC651D04002BB11F010938E00BF
:1007700010E41ABF006211B31B7D402F4B7D54E083
:100780005A95F1F702BB11BB42BB74CF85B78360AA
:1007900085BF8BB780648BBF8BE4809383008AE531
:1007A0008093820008951F93CF93DF93609193000D
:1007B000635067FDC2C080919000CCE0D0E0C81BC0
:1007C000D109C956DF4F80918F008D3209F0A3C047
:1007D000683009F0B0C083EC809377008AE580939D
:1007E0006200109271008881807639F0CE01BDDD03
:1007F000282F8F3F09F47EC084C09A811092800018
:100800008981882321F41092810022E06CC0853018
:1008100019F49093940066C0863009F04FC08B8124
:10082000813041F48BE191E09093920080939100AC
:1008300022E140C0823041F48DE291E09093920039
:100840008093910022E236C08330F9F48A818823B4
:1008500041F48DED90E0909392008093910024E01C
:1008600029C0813041F481EE90E090939200809312
:10087000910024E21FC08230E1F485E091E0909382
:1008800092008093910026E115C0813241F48FE3FC
:1008900091E0909392008093910029E00BC0823206
:1008A00041F48EE990E090939200809391002FE3C1
:1008B00001C020E080E48093710023C0883021F4DF
:1008C00021E086E990E011C0893019F490939600F8
:1008D00009C08A3011F421E006C08B3019F48BE492
:1008E0008093830020E080E890E0909392008093D2
:1008F000910007C0888187FD2E8180E88093710078
:1009000006C08F81882319F48E81821708F0822F08
:100910008093630010C08091710087FF0CC0CE01EE
:100920005FDD8F3F21F48EE18093620004C0882355
:1009300011F010926300109293008091620084FF86
:1009400049C0809163008F3F09F444C0182F89305B
:1009500008F018E0811B809363008091770098E88D
:10096000892780937700112341F1209191003091E4
:1009700092008091710086FF0DC0A8E7B0E080E092
:1009800090E0F901E80FF91FE491ED930196181733
:10099000C1F708C0912FD901E8E7F0E08D9181936C
:1009A0009150E1F71150812F90E01F5F0196820F67
:1009B000931F909392008093910088E790E0612FBD
:1009C000C0DD612F6C5F6C3019F08FEF8093630096
:1009D0006093620094E180B3847231F49150D9F74E
:1009E0001092940010928E00DF91CF911F91089584
:1009F0001F93DC01162F8091820084FF07C0809135
:100A0000830098E889278093830003C08AE5809358
:100A10008200912FE4E8F0E08D91819391501916B6
:100A2000DCF384E890E0612F8CDD1C5F1093820082
:080A30001F910895F894FFCF17
:040A380001025AFF5E
:00000001FF
