:1000000099C0A8C0A8C0A6C0A5C0A4C0A3C0A2C0D3
:10001000A1C0A0C09FC09EC09DC09CC09BC09AC0F4
:1000200099C098C097C096C095C094C093C092C024
:1000300091C090C03F3F3F3F3F3F3F3F3F3F3F3F2B
:100040003F3F3F3F3F3F3F3F3F71313F3F3F7A732D
:100050006177323F3F6378646534333F3F20766693
:100060007472353F3F6E62686779363F3F3F6D6A15
:100070007537383F3F3F6B696F30393F3F3F3F6CCB
:100080003F703F3F3F3F3F3F3F3F3F3F3F3F3F3F4F
:100090003F3F3F3F3F3F3F3F3F3F3F3F3F3F3F3F70
:1000A0003F3F3F3F3F3F3F3F3F3F3F3F3F3F3F3F60
:1000B0003F3F3F3F3F433F3F3D3B3C58644442400E
:1000C0003E0F293F65382A701D10023F66712C1FB4
:1000D0001E11035B672E2D201205045C68392F2149
:1000E0001413065D693130232215075E6A723224CB
:1000F0001608095F6B332517180B0A6C3F34352639
:1001000027190C3F6D7328741A0D3F3F3A361C1B9C
:10011000752B63763F56773F793F0E7B3F4F7D4B84
:10012000477E3F6F5253504C4D480145574E514A00
:100130003749463F11241FBECFEFD2E0DEBFCDBF0F
:1001400021E0A0E0B1E001C01D92A730B207E1F7C5
:10015000AAD0F1C055CF1F920F920FB60F92112463
:100160002F933F934F935F936F937F938F939F93BF
:10017000AF93BF93EF93FF934B994EC080910201D1
:10018000811108C04C9926C081E080930201109231
:10019000010127C020910101283090F44C9B0CC034
:1001A0003091040181E090E0022E01C0880F0A9492
:1001B000EAF7382B309304012F5F209301012CC004
:1001C000283021F489E08093010126C010920201B9
:1001D0001092010180910401803F31F481E080930D
:1001E00006011092040118C090910401809106014B
:1001F000923149F4811104C081E0809300010CC068
:100200001092000102C0882319F01092060104C068
:1002100081E08093030135D0FF91EF91BF91AF91C1
:100220009F918F917F916F915F914F913F912F910E
:100230000F900FBE0F901F901895E82FF0E0EC5C28
:10024000FF4F849190910001911180520895809107
:1002500003018823E1F310920301809104010895C2
:1002600010920201109204011092010153984B9ACE
:1002700085B7886085BF85B78B7F85BFE99A7894FD
:100280000895E5DFE82FF0E0EC54FF4FE491E093B0
:10029000050180910601882329F08091050180687D
:1002A0008093050108958AEA80930501D9DF15B886
:1002B00014B8569A30E44FEF83B186708630E1F778
:1002C000809105018F3FE1F38BB183278BB920919A
:1002D000050140930501229887EC90E00197F1F722
:1002E00000C00000219AE7ECF0E03197F1F700C080
:1002F0000000219888E090E020FF02C0229801C011
:10030000229AE7ECF0E03197F1F700C00000219A63
:10031000E7ECF0E03197F1F700C000002198269556
:100320000197009749F722988FE891E00197F1F73C
:0A03300000C00000C1CFF894FFCF19
:00000001FF
