:1000000012C017C016C015C014C013C012C011C052
:1000100010C00FC00EC00DC00CC00BC00AC009C07C
:1000200008C007C006C011241FBECFEDCDBF02D04F
:100030002AC0E6CF2FE088E190E00FB6F894A895AB
:1000400081BD0FBE21BD10BE84E083BF87B38FEF9B
:1000500087BB18BA12B88DE489B9599888E18AB972
:1000600086E083B990E042E034E028E4A89508B641
:1000700001FE02C048BF9F5F9111F8CF88B383276C
:0A00800088BB2CB9F3CFF894FFCF32
:00000001FF
