:1000000059C017C172C071C070C06FC06EC06DC0E2
:100010006CC06BC06AC069C068C067C066C065C09C
:1000200064C063C062C005010905A101A100050902
:100030001901293015002501953075018102C0C0D4
:10004000040309042403700075006C006B006F004A
:100050006D0061006E00640079002E006100740084
:1000600068002E00630078001803530074006100DC
:1000700072006B006100640072006F006900640030
:100080001201100100000008424231170001010274
:100090000001090222000101008032090400000170
:1000A00003000000092101010001221A0007058157
:1000B0000308001411241FBECFE5D4E0DEBFCDBF7E
:1000C00010E0A0E6B0E0E8EEF6E002C005900D9288
:1000D000A436B107D9F710E0A4E6B0E001C01D9244
:1000E000A33AB107E1F741D0FDC28ACFFC0185E612
:1000F00090E09093880080938700808180768032A2
:1001000071F58181813011F486E00895893049F4D8
:1001100086819781019719F581E0809364008FEFC4
:100120000895823019F48BE690E013C08A3029F4E8
:10013000838180936B0080E00895833031F4838164
:10014000882369F41092600008958B3041F480E6B2
:1001500090E0909388008093870081E0089580E08C
:1001600008951092640081E008951F93CF93DF9368
:100170002FE088E190E00FB6F894A89581BD0FBEFE
:1001800021BD78D1789414BA8FEF85BB17BA88BB9C
:1001900084E083BFC1E0D0E01FEFA89578D1E5E609
:1001A000F0E060E040E050E0CE01042E02C0880F95
:1001B000991F0A94E2F784BB809585BB86B32081A2
:1001C00030E090E0809590958F73907028173907F4
:1001D00009F061E086B380958F7381934F5F5F4F25
:1001E0004630510509F714BA15BB6623B1F2809168
:1001F000780084FFD2CF85E690E066E051D2CDCF83
:10020000A82FB92F80E090E041E050EA609530E0FF
:1002100009C02D9182279795879510F084279527FF
:10022000305EC8F36F5FA8F30895EADF8D939D9366
:100230000895CF93CFB7CF93DF93C395859BE9F70D
:10024000859B0BC0859B09C0859B07C0859B05C00E
:10025000859B03C0859B01C08BC06F93C0918600B6
:10026000DD27C357DF4F2F9365E5859B03C02F9193
:100270006F91E6CF0F931F934F9320E040E15F9380
:1002800000B3047205FB27F93F9350E03BE039C00F
:10029000147240642F77012F5F5F1EC0406810B357
:1002A00014722F7752501FC0406400B32F7704722E
:1002B000D1F15F5F00C023C0406210B32F7714728A
:1002C00091F15F5F00C025C004721027515012F4F5
:1002D0005D5F0000115027952C3F10B3C8F61472D3
:1002E0000127015027952C3FC8F64227499300B3B8
:1002F000047210274F73115027952C3FA8F646958E
:10030000469510B3147279F00127015027952C3FC0
:1003100098F66B5A60F3315000B3B0F600C010E4A9
:100320001ABF002719C03B503195C31BD04010E4C1
:100330001ABF0881033C09F10B34F9F020918400C5
:100340001981110F1213EDCF4A81441F093651F163
:100350000D3211F0013E29F700938B003F915F9120
:100360004F911F910F912F916F91CAB7C6FD65CF25
:10037000DF91CF91CFBFCF91189520918B00222391
:1003800069F310918900112391F5343092F1309383
:10039000890020938500109186003BE0311B30934B
:1003A000860027C00091890001300CF50AE54F70E6
:1003B00049F43091610034FD1DC000936100CDE629
:1003C000D0E01CC03091780034FD14C00093780058
:1003D000C9E7D0E013C0052710E000C0000002BB51
:1003E0001AC0052710E0221F1DC010E021C04AE5F9
:1003F00002C032ED432FC4E1D0E032E011B3146209
:10040000959A02B311BB54E220E865E320FF05276B
:1004100002BB279517951C3FF0F66695B8F7B1F724
:1004200020FF052702BB279517951C3FD0F627957F
:10043000179517FF052700001C3F02BBB0F6299156
:100440003A9519F70B7D10918A00110FC651D040D3
:1004500002BB11F01093840010E41ABF006211B3C4
:100460001B7D402F4B7D54E05A95F1F702BB11BB29
:1004700042BB74CF85B7836085BF8BB780648BBF69
:100480008BE4809379008AE58093780008951F9328
:10049000CF93DF9390918900935097FDA6C0209150
:1004A0008600809185008D3209F09DC0983009F05A
:1004B0009AC0CCE0D0E0C21BD109C357DF4F83EC18
:1004C00080936D008AE58093610010926C008881B2
:1004D000807621F0CE010ADE282F7CC09A8110920E
:1004E00076008981882321F41092770022E06CC085
:1004F000853019F490938A0066C0863009F04FC0A9
:100500008B81813041F480E890E090938800809363
:10051000870022E140C0823041F482E990E090936C
:1005200088008093870022E236C08330F9F48A8104
:10053000882341F480E490E09093880080938700C2
:1005400024E029C0813041F484E490E09093880055
:100550008093870024E21FC08230E1F488E690E0B7
:10056000909388008093870028E115C0813241F480
:1005700084EA90E0909388008093870029E00BC084
:10058000823241F486E290E0909388008093870065
:100590002AE101C020E080E480936C001BC0883019
:1005A00021F421E08CE890E011C0893019F4909397
:1005B0008C0009C08A3011F421E006C08B3019F498
:1005C0008BE48093790020E086E790E090938800A8
:1005D000809387008F81882321F48E81821708F40D
:1005E000282F20936200109289008091610084FF7F
:1005F00049C0809162008F3F09F444C0182F8930B0
:1006000008F018E0811B8093620080916D0098E8EB
:10061000892780936D00112341F12091870030914B
:10062000880080916C0086FF0DC0AEE6B0E080E0EF
:1006300090E0F901E80FF91FE491ED930196181786
:10064000C1F708C0912FD901EEE6F0E08D918193BA
:100650009150E1F71150812F90E01F5F0196820FBA
:10066000931F90938800809387008EE690E0612F1F
:10067000DCDD612F6C5F6C3019F08FEF80936200CE
:100680006093610094E180B3847231F49150D9F7A2
:1006900010928A0010928400DF91CF911F910895EB
:1006A0001F93DC01162F8091780084FF07C0809192
:1006B000790098E889278093790003C08AE58093C0
:1006C0007800912FEAE7F0E08D918193915019160F
:1006D000DCF38AE790E0612FA8DD1C5F10937800BF
:0806E0001F910895F894FFCF6B
:0406E800015AFF00B4
:00000001FF
