:1000000052C061C06AC05FC05EC05DC05CC05BC002
:100010005AC059C058C057C056C055C054C053C02C
:1000200052C051C050C06031323334353637383960
:10003000302D3D5C3F3071776572747975696F70F2
:100040005B5D3F3132336173646667686A6B6C3B3A
:1000500027B93F3435363C7A786376626E6D2C2E44
:100060002F3F2E3738392008090A0A1B7F3F3F3FB0
:100070003F3F55444C5231323334353637383930BE
:100080003F3F3F3F3F4853534358414141413F3F2A
:100090003F3F3F3F3F3F3F3F3F3F3F3F3F3F3F3F70
:1000A0003F3F3F3F3F3F11241FBECFE5D4E0DEBFBF
:1000B000CDBF10E0A0E6B0E001C01D92A536B107AB
:1000C000E1F7A3D0B3C09CCF8C9A949884E591E0DB
:1000D0000197F1F7949A8C9808951F920F920FB69A
:1000E0000F9211242F933F938F939F9382B390E4A9
:1000F000892782BB83992CC080916100882339F4C1
:1001000081E0809361001092630010926200309150
:100110006300383090F484990DC02091620080E82B
:1001200090E0032E02C0959587950A94E2F7282B5C
:10013000209362003F5F30936300809163008830BA
:1001400038F0109261001092630081E080936400A7
:100150009F918F913F912F910F900FBE0F901F9005
:100160001895E82FF0E0EA5DFF4F949180916000D0
:10017000882311F4892F0895892F80520895809142
:1001800064008823E1F380B380EA8A95F1F79CDF6D
:1001900010926400809162000895109261001092A4
:1001A0006200109263008B98839A85B7886085BF40
:1001B00085B78B7F85BF8BB780688BBF789484DFD2
:1001C000089589B990BD86E880BD88E18AB908950F
:1001D0005D9BFECF8CB908955F9BFECF8CB10895D7
:1001E000982F92959F709A3010F4905D01C0995CA1
:1001F0005D9BFECF9CB98F708A3010F4805D01C08A
:10020000895C5D9BFECF8CB908958E9A83E390E064
:10021000D8DFC3DF82E5DCDFB2DF982F96958795C4
:1002200088278795892BDCDF80E2F5CFF894FFCF14
:00000001FF
